:020000040000FA
:0400000017EF7CF08A
:10F82E00000EF86E000134EF7DF0000E046E000E37
:10F83E00036E44EF7CF0000E056EC70E05642AEFD2
:10F84E007CF02CEF7CF030EF7CF040EF7CF040EF62
:10F85E007CF000F000F000F000F000F0052AC70E7A
:10F86E0005643CEF7CF03EEF7CF030EF7CF040EF37
:10F87E007CF0034A042A44EF7CF00150035C0250F2
:10F88E000458D8A04DEF7CF04FEF7CF022EF7CF0C7
:10F89E0051EF7CF01200000E066E02BE5BEF7CF0A4
:10F8AE0059EF7CF063EF7CF0016C021ED8B0022A97
:10F8BE00010E066E63EF7CF004BE6AEF7CF068EF1B
:10F8CE007CF070EF7CF0036C041ED8B0042A70EF4D
:10F8DE007CF003500410D8B477EF7CF079EF7CF015
:10F8EE00A9EF7CF0010E056E83EF7CF0D890033605
:10F8FE000436052A83EF7CF004AE88EF7CF08AEFA5
:10F90E007CF07DEF7CF08EEF7CF08EEF7CF0035080
:10F91E00015C04500258D8A097EF7CF099EF7CF070
:10F92E009FEF7CF00350015E0450025A9FEF7CF073
:10F93E00D89004320332052E8EEF7CF0A9EF7CF0C6
:10F94E00A9EF7CF00650D8B4AFEF7CF0B1EF7CF0AD
:10F95E00B7EF7CF0016C021ED8B0022AB7EF7CF034
:10F96E0001C001F002C002F0BDEF7CF01200000EEB
:10F97E00066E04BEC7EF7CF0C5EF7CF0CFEF7CF0D7
:10F98E00036C041ED8B0042A010E066ECFEF7CF075
:10F99E0002BED6EF7CF0D4EF7CF0DEEF7CF0016C93
:10F9AE00021ED8B0022A010E061ADEEF7CF0000EFF
:10F9BE00086E000E076E03500410D8B4E9EF7CF009
:10F9CE00EBEF7CF01FEF7DF0010E056EF5EF7CF096
:10F9DE00D89003360436052AF5EF7CF004AEFAEF24
:10F9EE007CF0FCEF7CF0EFEF7CF000EF7DF000EFB1
:10F9FE007DF0D890073608360350015C045002584B
:10FA0E00D8A00CEF7DF00EEF7DF015EF7DF00350DA
:10FA1E00015E0450025A078015EF7DF0D890043233
:10FA2E000332052E00EF7DF01FEF7DF01FEF7DF00E
:10FA3E000650D8B425EF7DF027EF7DF02DEF7DF049
:10FA4E00076C081ED8B0082A2DEF7DF007C001F014
:10FA5E0008C002F033EF7DF01200010E196E010E98
:10FA6E00216E000E206E070E226EE00E1C6E010E31
:10FA7E000B6E000E1B6E000E1A6E000E156E000E33
:10FA8E00146E080E1F6E000E246E000E176E000E02
:10FA9E00166E010E186E000E1D6E630E1E6E010E9A
:10FAAE00236E0F0EC16EC30E926E3F0E936E010E3D
:10FABE00946E000E956E000E966E000E816E68EFBF
:10FACE007DF025C083FF000E176E000E166E010E20
:10FADE00026EF40E016E1CEC7CF0170E0D6E700EA5
:10FAEE000C6E7FEF7DF00C06D8A00D067FEF7DF03B
:10FAFE0081A884EF7DF086EF7DF098EF7DF081A6F2
:10FB0E008BEF7DF08DEF7DF098EF7DF00C500D10AA
:10FB1E00D8A494EF7DF096EF7DF07AEF7DF098EF1C
:10FB2E007DF081B69DEF7DF09FEF7DF0A8EF7DF02B
:10FB3E00192A000E256E010E216E000E206EC9EFE1
:10FB4E007FF081B8ADEF7DF0AFEF7DF0C9EF7FF0C4
:10FB5E001906000E256E010E216E000E206EC9EFE5
:10FB6E007FF0C9EF7FF0C9EF7FF0252A68EF7DF0B7
:10FB7E002006D8A0210620C025F020502110D8A4A0
:10FB8E00CBEF7DF0CDEF7DF068EF7DF0010E216EB5
:10FB9E00000E206E68EF7DF068EF7DF025281F6E59
:10FBAE00D8901F301F18256E68EF7DF02006D8A064
:10FBBE002106D89021300A6E2030096E0950201887
:10FBCE00256E68EF7DF01D2A630E1D64F1EF7DF04A
:10FBDE00F3EF7DF0F7EF7DF0000E1D6EF7EF7DF089
:10FBEE001DC001F0026A000E046E0A0E036E52EC86
:10FBFE007CF001C009F002C00AF01DC001F0026ADB
:10FC0E00000E046E0A0E036EBEEC7CF00138F00B93
:10FC1E000910256E68EF7DF01E061E50D8A41AEF4F
:10FC2E007EF01CEF7EF020EF7EF0630E1E6E20EF56
:10FC3E007EF01EC001F0026A000E046E0A0E036E04
:10FC4E0052EC7CF001C009F002C00AF01EC001F0B7
:10FC5E00026A000E046E0A0E036EBEEC7CF00138D2
:10FC6E00F00B0910256E68EF7DF0070E226E000E68
:10FC7E00246E040E246446EF7EF048EF7EF04CEFC7
:10FC8E007EF083EF7EF083EF7EF022C025F025C05C
:10FC9E0083FF22502224226E81A858EF7EF05BEF64
:10FCAE007EF0010E5CEF7EF0000E096E81A662EF13
:10FCBE007EF065EF7EF0010E66EF7EF0000E09100D
:10FCCE00E8A06CEF7EF06EEF7EF072EF7EF083EFC9
:10FCDE007EF083EF7EF0010E026EF40E016E1CECD0
:10FCEE007CF0242A040E24647FEF7EF081EF7EF0F8
:10FCFE004CEF7EF083EF7EF0E00E1C6E050E246E50
:10FD0E002450D8A48DEF7EF08FEF7EF093EF7EF02F
:10FD1E0068EF7DF068EF7DF01CC025F025C083FFF5
:10FD2E00D8901C301C6E81A89FEF7EF0A2EF7EF063
:10FD3E00010EA3EF7EF0000E096E81A6A9EF7EF0F4
:10FD4E00ACEF7EF0010EADEF7EF0000E0910E8A0D4
:10FD5E00B3EF7EF0B5EF7EF0B9EF7EF068EF7DF099
:10FD6E0068EF7DF0010E026EF40E016E1CEC7CF05D
:10FD7E0024062450D8A4C6EF7EF0C8EF7EF093EF91
:10FD8E007EF068EF7DF068EF7DF0000E1B6E000ECA
:10FD9E001A6E000E156E000E146E080E1F6E27EFF3
:10FDAE007FF0010E226E000E246E13EF7FF081A8FD
:10FDBE00E3EF7EF0E6EF7EF0010EE7EF7EF0000E51
:10FDCE00096E81A6EDEF7EF0F0EF7EF0010EF1EF01
:10FDDE007EF0000E0910E8A0F7EF7EF0F9EF7EF04E
:10FDEE00FFEF7EF0000E176E880E166E1EEF7FF080
:10FDFE0022501A10256E25C083FF010E026EF40EDE
:10FE0E00016E1CEC7CF022C014F0156A22502224E4
:10FE1E00226E242A13EF7FF01F50245CD8A01AEF15
:10FE2E007FF01CEF7FF0DEEF7EF01EEF7FF01450C0
:10FE3E001A241A6E15501B201B6E1F06164A172AFF
:10FE4E0081B82CEF7FF02FEF7FF0010E30EF7FF0B7
:10FE5E00000E096E81B636EF7FF039EF7FF0010E9E
:10FE6E003AEF7FF0000E0A6E880E16181710D8A4FF
:10FE7E0043EF7FF046EF7FF0010E47EF7FF0000E6D
:10FE8E000A1409148EE168EF7DF068EF7DF09EEFA5
:10FE9E007FF081A855EF7FF058EF7FF0010E59EFFC
:10FEAE007FF0000E096E81A65FEF7FF062EF7FF0AC
:10FEBE00010E63EF7FF0000E0910E8A069EF7FF0EE
:10FECE006BEF7FF06FEF7FF0400E186E6FEF7FF0ED
:10FEDE002350010B106ED8902330010B116E233876
:10FEEE000F0B010B126E2338E842070B010B136E3A
:10FEFE0010501118121813180E6E0EC009F0050EC0
:10FF0E000A6ED89009360A2E88EF7FF0D8902330EB
:10FF1E0009100F6E0FC023F023C083FF010E026E77
:10FF2E00F40E016E1CEC7CF0182A9EEF7FF081B867
:10FF3E00A3EF7FF0A6EF7FF0010EA7EF7FF0000E8C
:10FF4E00096E81B6ADEF7FF0B0EF7FF0010EB1EF2D
:10FF5E007FF0000E0A6E3F0E1864B8EF7FF0BBEF15
:10FF6E007FF0010EBCEF7FF0000E0A14091491E130
:10FF7E0068EF7DF068EF7DF0010E196E68EF7DF091
:10FF8E0068EF7DF01950096E0A6A0A50000AD8B45B
:10FF9E00D3EF7FF0C3EF7FF00950010AD8B4BCEF66
:10FFAE007DF0030AD8B4BFEF7DF0010AD8B4D5EFC7
:10FFBE007DF0070AD8B4DDEF7DF0010AD8B4EAEF80
:10FFCE007DF0030AD8B413EF7EF0010AD8B43CEFEB
:10FFDE007EF00F0AD8B4CCEF7EF0010AD8B49EEFB3
:10FFEE007FF0C3EF7FF068EF7DF068EF7DF000EFFC
:02FFFE0000F011
:020000040020DA
:08000000FFFFFFFFFFFFFFFF00
:020000040030CA
:0E000000FF06181EFF8180FF0FC00FE00F40AB
:00000001FF
