:020000040000FA
:040000007FEF0CF092
:10100000003120677261637A2070727A656772615D
:101010006C003220677261637A2070727A65677241
:10102000616C003120677261637A20203220677220
:1010300061637A006772652070727A657A20637ADC
:10104000617300202020202020200000010EC26EAD
:101050000B0EC16E010EC06EC30E926E3F0E936EEC
:10106000010E946E000E956E000E966E3FEC0CF025
:10107000010E76EC0CF0000E176E000E166E000ED0
:10108000106E000E0F6E000E116E000E126E000E2E
:10109000156E000E236E000E226E000E1F6E000EE7
:1010A0001E6E000E196E000E186E000E216E000EE0
:1010B000206E000E1D6E000E1C6E000E1B6E000ECC
:1010C0001A6E000E146E010E136E67EF08F0010E1B
:1010D00041EC0BF001C008F002C009F0000E0B6EED
:1010E000050E0A6E91EC0BF008C00FF009C010F06D
:1010F0000FC016F0176A175007E1500E165CD8B0F3
:1011000084EF08F086EF08F08AEF08F0030E156E02
:101110008AEF08F0175009E1510E165CD8A093EF42
:1011200008F095EF08F0A4EF08F0175007E1780EEB
:10113000165CD8B09EEF08F0A0EF08F0A4EF08F01E
:10114000020E156EA4EF08F0175009E1790E165C37
:10115000D8A0ADEF08F0AFEF08F0B3EF08F0010E44
:10116000156EB3EF08F081BAB8EF08F0BAEF08F0E7
:10117000C0EF08F0000E116E010E126EC0EF08F005
:1011800081B6C5EF08F0C7EF08F0CDEF08F0010E0B
:10119000116E000E126ECDEF08F0000E026E460EBC
:1011A000016ED5EC0BF0030E1518D8A4DAEF08F099
:1011B000DCEF08F030EF09F013041410D8A4E3EFCB
:1011C00008F0E5EF08F0F7EF08F0000E196E050ED5
:1011D000186E000E1B6E050E1A6E000E1F6E000EAE
:1011E0001E6E000E236E000E226EF7EF08F0000E4A
:1011F000026E460E016ED5EC0BF0010E76EC0CF093
:10120000800E76EC0CF0230E036E100E046E0BECC9
:101210000CF0C00E76EC0CF01850300F6DEC0CF0AA
:101220003A0E6DEC0CF01E50300F6DEC0CF02250AD
:10123000300F6DEC0CF0430E036E100E046E0BECD1
:101240000CF01A50300F6DEC0CF03A0E6DEC0CF007
:101250001C50300F6DEC0CF02050300F6DEC0CF08A
:10126000020E1518D8A437EF09F039EF09F08DEF09
:1012700009F013041410D8A440EF09F042EF09F06C
:1012800054EF09F0000E196E030E186E000E1B6E5F
:10129000030E1A6E000E1F6E000E1E6E000E236EE1
:1012A000000E226E54EF09F0000E026E460E016E23
:1012B000D5EC0BF0010E76EC0CF0800E76EC0CF019
:1012C000230E036E100E046E0BEC0CF0C00E76ECC9
:1012D0000CF01850300F6DEC0CF03A0E6DEC0CF079
:1012E0001E50300F6DEC0CF02250300F6DEC0CF0F6
:1012F000430E036E100E046E0BEC0CF01A50300F00
:101300006DEC0CF03A0E6DEC0CF01C50300F6DECE7
:101310000CF02050300F6DEC0CF01504D8A493EFB6
:1013200009F095EF09F0E9EF09F013041410D8A4BF
:101330009CEF09F09EEF09F0B0EF09F0000E196E76
:10134000010E186E000E1B6E010E1A6E000E1F6E3F
:10135000000E1E6E000E236E000E226EB0EF09F01E
:10136000000E026E460E016ED5EC0BF0010E76EC0F
:101370000CF0800E76EC0CF0230E036E100E046E53
:101380000BEC0CF0C00E76EC0CF01850300F6DEC3E
:101390000CF03A0E6DEC0CF01E50300F6DEC0CF0B2
:1013A0002250300F6DEC0CF0430E036E100E046EE5
:1013B0000BEC0CF01A50300F6DEC0CF03A0E6DEC9B
:1013C0000CF01C50300F6DEC0CF02050300F6DEC19
:1013D0000CF01204D8A4EFEF09F0F1EF09F092EF4E
:1013E0000AF0000E146E000E136E000E026E460E12
:1013F000016ED5EC0BF01BBE06EF0AF01B5008E1A6
:101400001A04D8A006EF0AF008EF0AF027EF0AF056
:101410001C501D10D8A40FEF0AF011EF0AF027EFAF
:101420000AF020502110D8A418EF0AF01AEF0AF0A1
:1014300027EF0AF01A06D8A01B06000E1D6E050E37
:101440001C6E000E216E0A0E206E27EF0AF01DBEE4
:1014500032EF0AF01D5008E11C04D8A032EF0AF068
:1014600034EF0AF046EF0AF020502110D8A43BEFE9
:101470000AF03DEF0AF046EF0AF01C06D8A01D0660
:10148000000E216E0A0E206E46EF0AF021BE51EFCB
:101490000AF0215008E12004D8A051EF0AF053EFE0
:1014A0000AF058EF0AF02006D8A0210658EF0AF0FB
:1014B0001A501B10D8A45FEF0AF061EF0AF092EF08
:1014C0000AF01C501D10D8A468EF0AF06AEF0AF069
:1014D00092EF0AF020502110D8A471EF0AF073EFB8
:1014E0000AF092EF0AF0000E026E460E016ED5EC85
:1014F0000BF0010E76EC0CF0800E76EC0CF0120E78
:10150000036E100E046E0BEC0CF0C00E76EC0CF0BB
:10151000340E036E100E046E0BEC0CF092EF0AF01A
:1015200092EF0AF01104D8A498EF0AF09AEF0AF0AB
:1015300067EF08F0000E146E000E136E000E026EC0
:10154000460E016ED5EC0BF019BEAFEF0AF0195044
:1015500008E11804D8A0AFEF0AF0B1EF0AF0D0EF1D
:101560000AF01E501F10D8A4B8EF0AF0BAEF0AF024
:10157000D0EF0AF022502310D8A4C1EF0AF0C3EF35
:101580000AF0D0EF0AF01806D8A01906000E1F6E58
:10159000050E1E6E000E236E0A0E226ED0EF0AF0AC
:1015A0001FBEDBEF0AF01F5008E11E04D8A0DBEFDE
:1015B0000AF0DDEF0AF0EFEF0AF022502310D8A472
:1015C000E4EF0AF0E6EF0AF0EFEF0AF01E06D8A00B
:1015D0001F06000E236E0A0E226EEFEF0AF023BEE6
:1015E000FAEF0AF0235008E12204D8A0FAEF0AF03B
:1015F000FCEF0AF001EF0BF02206D8A0230601EF62
:101600000BF018501910D8A408EF0BF00AEF0BF0EC
:1016100067EF08F01E501F10D8A411EF0BF013EF66
:101620000BF067EF08F022502310D8A41AEF0BF04C
:101630001CEF0BF067EF08F0000E026E460E016E15
:10164000D5EC0BF0010E76EC0CF0800E76EC0CF085
:10165000010E036E100E046E0BEC0CF0C00E76EC57
:101660000CF0340E036E100E046E0BEC0CF067EFF2
:1016700008F067EF08F067EF08F067EF08F000EF99
:1016800000F0076E52EF0BF0010EC26E6BEF0BF025
:10169000050EC26E6BEF0BF0090EC26E6BEF0BF016
:1016A0006BEF0BF00750036E046A0450000AD8B4C5
:1016B0005CEF0BF06BEF0BF00350000AD8B444EF73
:1016C0000BF0010AD8B448EF0BF0030AD8B44CEF82
:1016D0000BF06BEF0BF0C2826EEF0BF0C2B273EF48
:1016E0000BF075EF0BF06EEF0BF077EF0BF0C3CF55
:1016F00003F0060E046ED8900332042E7BEF0BF03D
:101700000350C4CF05F0066AD89005360636D89047
:10171000053606360510016E0650026E90EF0BF08E
:101720001200000E0D6E000E0C6E0A500B10D8B495
:101730009CEF0BF09EEF0BF0D0EF0BF0010E0E6E56
:10174000A8EF0BF0D8900A360B360E2AA8EF0BF054
:101750000BAEADEF0BF0AFEF0BF0A2EF0BF0B3EF72
:101760000BF0B3EF0BF0D8900C360D360A50085C36
:101770000B500958D8A0BFEF0BF0C1EF0BF0C8EF2A
:101780000BF00A50085E0B50095A0C80C8EF0BF0A2
:10179000D8900B320A320E2EB3EF0BF0D0EF0BF0D5
:1017A0000CC008F00DC009F01200000E046E000E0F
:1017B000036EFDEF0BF0000E056EC70E0564E3EF40
:1017C0000BF0E5EF0BF0E9EF0BF0F9EF0BF0F9EFB1
:1017D0000BF000F000F000F000F000F0052AC70E5A
:1017E0000564F5EF0BF0F7EF0BF0E9EF0BF0F9EF15
:1017F0000BF0034A042AFDEF0BF00150035C02508A
:101800000458D8A006EF0CF008EF0CF0DBEF0BF05B
:101810000AEF0CF01200000E076E24EF0CF00750D8
:10182000010D03C005F004C006F0F3500526F45086
:10183000062205C0F6FF06C0F7FF0800F5506DEC64
:101840000CF0072A24EF0CF00750010D03C005F03F
:1018500004C006F0F3500526F450062205C0F6FF3A
:1018600006C0F7FF0800F5500009D8A43AEF0CF0C5
:101870003CEF0CF00FEF0CF03EEF0CF012008492F6
:101880008494000E026E140E016ED5EC0BF084826F
:10189000380E76EC0CF0000E026E050E016ED5ECE3
:1018A0000BF0380E76EC0CF0000E026E010E016E9D
:1018B000D5EC0BF0380E76EC0CF0080E76EC0CF054
:1018C0000F0E76EC0CF0010E76EC0CF0380E76EC88
:1018D0000CF0800E76EC0CF01200026E8482025046
:1018E00084EC0CF08484849284821200026E8482E0
:1018F000025084EC0CF08494849284821200000ED6
:10190000F86E000126EF08F0016E01C083FF12009F
:020000040020DA
:08000000FFFFFFFFFFFFFFFF00
:020000040030CA
:0E000000FF06181EFF8180FF0FC00FE00F40AB
:00000001FF
