:020000040000FA
:040000003BEF7EF064
:10FC7600000EF86E000153EF7FF0000E046E000ECA
:10FC8600036E68EF7EF0000E056EC70E05644EEF3C
:10FC96007EF050EF7EF054EF7EF064EF7EF064EF7E
:10FCA6007EF000F000F000F000F000F0052AC70E2C
:10FCB600056460EF7EF062EF7EF054EF7EF064EF55
:10FCC6007EF0034A042A68EF7EF00150035C02507E
:10FCD6000458D8A071EF7EF073EF7EF046EF7EF009
:10FCE60075EF7EF01200000E0D6E000E0C6E0A50BF
:10FCF6000B10D8B481EF7EF083EF7EF0B5EF7EF087
:10FD0600010E0E6E8DEF7EF0D8900A360B360E2A57
:10FD16008DEF7EF00BAE92EF7EF094EF7EF087EFE4
:10FD26007EF098EF7EF098EF7EF0D8900C360D3688
:10FD36000A50085C0B500958D8A0A4EF7EF0A6EF35
:10FD46007EF0ADEF7EF00A50085E0B50095A0C802B
:10FD5600ADEF7EF0D8900B320A320E2E98EF7EF081
:10FD6600B5EF7EF00CC008F00DC009F01200E4EF0C
:10FD76007EF0000E026E0A0E016E40EC7EF002EF7F
:10FD86007FF0000E026E320E016E40EC7EF002EF46
:10FD96007FF0000E026E640E016E40EC7EF002EF04
:10FDA6007FF0000E026EC80E016E40EC7EF002EF90
:10FDB6007FF0010E026EF40E016E40EC7EF002EF53
:10FDC6007FF006C008F007C009F00950000AD8B451
:10FDD600EFEF7EF0DCEF7EF00850010AD8B4BCEFFE
:10FDE6007EF0030AD8B4C4EF7EF0010AD8B4CCEF93
:10FDF6007EF0070AD8B4D4EF7EF0DCEF7EF0120076
:10FE0600076E14EF7FF0010EC26E2DEF7FF0050E28
:10FE1600C26E2DEF7FF0090EC26E2DEF7FF02DEF33
:10FE26007FF00750036E046A0450000AD8B41EEF30
:10FE36007FF02DEF7FF00350000AD8B406EF7FF075
:10FE4600010AD8B40AEF7FF0030AD8B40EEF7FF0A8
:10FE56002DEF7FF0C28230EF7FF0C2B235EF7FF038
:10FE660037EF7FF030EF7FF039EF7FF0C3CF03F04D
:10FE7600060E046ED8900332042E3DEF7FF0035039
:10FE8600C4CF05F0066AD89005360636D8900536F2
:10FE960006360510016E0650026E52EF7FF0120014
:10FEA600010EC26E0B0EC16E010EC06EC30E926EB7
:10FEB6003F0E936E010E946E000E956E000E966EBA
:10FEC600000E116E000E136E000E126E000E156EF1
:10FED600010E146E000E176E630E166E73EF7FF032
:10FEE60011C083FF010E03EC7FF001C008F002C0D1
:10FEF60009F0000E0B6ECD0E0A6E76EC7EF008C091
:10FF060012F009C013F081B68BEF7FF08DEF7FF012
:10FF160093EF7FF0144A152A144A152ADCEF7FF076
:10FF260081B898EF7FF09AEF7FF0DCEF7FF0140650
:10FF3600D8A01506DCEF7FF0DCEF7FF0DCEF7FF07A
:10FF4600000E156E020E146EABEF7FF0ABEF7FF076
:10FF5600112A12C006F013C007F0BAEC7EF073EF58
:10FF66007FF01606D8A0170617341730106E163015
:10FF76000F6E0F501618836E12C006F013C007F0EE
:10FF8600BAEC7EF017BECCEF7FF0CAEF7FF073EFCE
:10FF96007FF0000E176E630E166E73EF7FF073EF31
:10FFA6007FF0000E156E010E146EABEF7FF073EF4F
:10FFB6007FF014C00FF015C010F01050000AD8B42E
:10FFC600E7EF7FF073EF7FF00F50000AD8B4A3EF8E
:10FFD6007FF0010AD8B4ABEF7FF0030AD8B4B4EFD0
:10FFE6007FF0010AD8B4D4EF7FF073EF7FF073EFA0
:0AFFF6007FF073EF7FF000EF00F0E2
:020000040020DA
:08000000FFFFFFFFFFFFFFFF00
:020000040030CA
:0E000000FF06181EFF8180FF0FC00FE00F40AB
:00000001FF
