:020000040000FA
:0400000097EF0BF07B
:10100000006D6F63202020202020202020323030EF
:1010100057006D6F632020202020202020203630B4
:101020003057006D6F6320202020202020202038A2
:10103000303057006D6F632020202020202020209A
:101040003335305700437A61732020202020202040
:101050000000010EC26E0B0EC16E010EC06EC30EFB
:10106000926E3F0E936E010E946E000E956E000E02
:10107000966E57EC0BF0010E8EEC0BF0000E0D6E21
:10108000010E0C6E000E116E000E106E000E136E2F
:10109000000E126E000E0F6E000E0E6E000E156E1C
:1010A000000E146E000E096E000E086E000E0B6E20
:1010B000000E0A6E5CEF08F081B261EF08F063EF9A
:1010C00008F081EF08F0000E0D6E010E0C6E000EA0
:1010D000116E000E106E000E136E000E126E000EDA
:1010E0000F6E000E0E6E000E156E000E146E000ECA
:1010F000096E000E086E000E0B6E000E0A6E81EF78
:1011000008F081BA86EF08F088EF08F0A0EF08F049
:101110000C4A0D2A0DBE96EF08F00D5009E1050EA0
:101120000C5CD8A096EF08F098EF08F0A0EF08F05C
:10113000000E0D6E010E0C6EA0EF08F0A0EF08F08F
:1011400081B8A5EF08F0A7EF08F0D5EF08F0144A32
:10115000152A15BEB5EF08F0155009E10A0E145C0A
:10116000D8A0B5EF08F0B7EF08F0D5EF08F00E4AB9
:101170000F2A000E156E000E146E0FBEC9EF08F098
:101180000F5009E10A0E0E5CD8A0C9EF08F0CBEFB2
:1011900008F0D5EF08F0000E0F6E000E0E6ED5EFC2
:1011A00008F0D5EF08F0D5EF08F081B6DAEF08F0D7
:1011B000DCEF08F020EF09F0124A132A13BEEAEF21
:1011C00008F0135009E1060E125CD8A0EAEF08F00F
:1011D000ECEF08F020EF09F0144A152A000E136E08
:1011E000000E126E15BEFEEF08F0155009E10A0E52
:1011F000145CD8A0FEEF08F000EF09F020EF09F032
:101200000E4A0F2A000E156E000E146E0FBE12EF5E
:1012100009F00F5009E10A0E0E5CD8A012EF09F098
:1012200014EF09F020EF09F0000E0F6E000E0E6EA5
:1012300020EF09F020EF09F020EF09F020EF09F08E
:1012400081B425EF09F027EF09F02DEF09F0000E2A
:10125000096E010E086E2DEF09F081B432EF09F02E
:1012600034EF09F047EF09F00A040B10D8A43BEF64
:1012700009F03DEF09F047EF09F0000E096E000E8E
:10128000086E000E0B6E000E0A6E47EF09F00804A0
:101290000910D8A44EEF09F050EF09F000EF0AF062
:1012A000010E026EF40E016EEDEC0AF015BE61EF58
:1012B00009F0155008E11404D8A061EF09F063EFBC
:1012C00009F086EF09F012501310D8A46AEF09F064
:1012D0006CEF09F086EF09F010501110D8A473EFED
:1012E00009F075EF09F086EF09F0000E0B6E010EA4
:1012F0000A6E1406D8A01506000E136E050E126EA7
:10130000000E116E0A0E106E86EF09F00FBE91EFFF
:1013100009F00F5008E10E04D8A091EF09F093EF07
:1013200009F0C3EF09F014501510D8A49AEF09F092
:101330009CEF09F0C3EF09F012501310D8A4A3EFEB
:1013400009F0A5EF09F0C3EF09F010501110D8A46F
:10135000ACEF09F0AEEF09F0C3EF09F0000E0B6E31
:10136000010E0A6E0E06D8A00F06000E156E090EAD
:10137000146E000E136E050E126E000E116E0A0E24
:10138000106EC3EF09F013BECEEF09F0135008E161
:101390001204D8A0CEEF09F0D0EF09F0E6EF09F083
:1013A00010501110D8A4D7EF09F0D9EF09F0E6EFEB
:1013B00009F0000E0B6E010E0A6E1206D8A013067D
:1013C000000E116E0A0E106EE6EF09F011BEF1EF7D
:1013D00009F0115008E11004D8A0F1EF09F0F3EF83
:1013E00009F0F8EF09F01006D8A0110600EF0AF096
:1013F000000E096E000E086E00EF0AF000EF0AF012
:10140000040E0C180D10D8A408EF0AF00AEF0AF029
:101410003AEF0AF0030E026EE80E016EEDEC0AF0F0
:10142000010E8EEC0BF0800E8EEC0BF0010E036EB5
:10143000100E046E23EC0BF0C00E8EEC0BF0450E7C
:10144000036E100E046E23EC0BF00E50300F85EC83
:101450000BF01450300F85EC0BF03A0E85EC0BF0CE
:101460001250300F85EC0BF01050300F85EC0BF064
:101470003AEF0AF0030E0C180D10D8A442EF0AF050
:1014800044EF0AF074EF0AF0030E026EE80E016EEC
:10149000EDEC0AF0010E8EEC0BF0800E8EEC0BF0F2
:1014A000340E036E100E046E23EC0BF0C00E8EECA7
:1014B0000BF0450E036E100E046E23EC0BF00E5075
:1014C000300F85EC0BF01450300F85EC0BF03A0E1A
:1014D00085EC0BF01250300F85EC0BF01050300FF4
:1014E00085EC0BF074EF0AF0020E0C180D10D8A466
:1014F0007CEF0AF07EEF0AF0AEEF0AF0030E026E08
:10150000E80E016EEDEC0AF0010E8EEC0BF0800E91
:101510008EEC0BF0120E036E100E046E23EC0BF02B
:10152000C00E8EEC0BF0450E036E100E046E23EC15
:101530000BF00E50300F85EC0BF01450300F85EC93
:101540000BF03A0E85EC0BF01250300F85EC0BF0DF
:101550001050300F85EC0BF0AEEF0AF00C040D10BC
:10156000D8A4B5EF0AF0B7EF0AF05CEF08F0030E6D
:10157000026EE80E016EEDEC0AF0010E8EEC0BF03F
:10158000800E8EEC0BF0230E036E100E046E23EC17
:101590000BF0C00E8EEC0BF0450E036E100E046EB9
:1015A00023EC0BF00E50300F85EC0BF01450300F85
:1015B00085EC0BF03A0E85EC0BF01250300F85ECF9
:1015C0000BF01050300F85EC0BF05CEF08F05CEF87
:1015D00008F05CEF08F000EF00F0000E046E000E63
:1015E000036E15EF0BF0000E056EC70E0564FBEFE2
:1015F0000AF0FDEF0AF001EF0BF011EF0BF011EF25
:101600000BF000F000F000F000F000F0052AC70E2B
:1016100005640DEF0BF00FEF0BF001EF0BF011EF86
:101620000BF0034A042A15EF0BF00150035C025043
:101630000458D8A01EEF0BF020EF0BF0F3EF0AF0E8
:1016400022EF0BF01200000E076E3CEF0BF007507C
:10165000010D03C005F004C006F0F3500526F45058
:10166000062205C0F6FF06C0F7FF0800F55085EC1E
:101670000BF0072A3CEF0BF00750010D03C005F0FB
:1016800004C006F0F3500526F450062205C0F6FF0C
:1016900006C0F7FF0800F5500009D8A452EF0BF080
:1016A00054EF0BF027EF0BF056EF0BF01200849283
:1016B0008494000E026E140E016EEDEC0AF084822A
:1016C000380E8EEC0BF0000E026E050E016EEDEC86
:1016D0000AF0380E8EEC0BF0000E026E010E016E59
:1016E000EDEC0AF0380E8EEC0BF0080E8EEC0BF0E1
:1016F0000F0E8EEC0BF0010E8EEC0BF0380E8EEC14
:101700000BF0800E8EEC0BF01200026E8482025001
:101710009CEC0BF08484849284821200026E84829A
:1017200002509CEC0BF08494849284821200000E90
:10173000F86E000129EF08F0016E01C083FF12006E
:020000040020DA
:08000000FFFFFFFFFFFFFFFF00
:020000040030CA
:0E000000FF06181EFF8180FF0FC00FE00F40AB
:00000001FF
