:020000040000FA
:0400000054EF7EF04B
:10FCA800000EF86E00013EEF7FF0000E126E000E9F
:10FCB800116E000EEEEC7EF001C008F002C009F0F3
:10FCC800000E0B6E050E0A6EAAEC7EF008C011F04D
:10FCD80009C012F011C00FF0106A73EF7EF0120025
:10FCE800000E046E000E036E9CEF7EF0000E056E93
:10FCF800C70E056482EF7EF084EF7EF088EF7EF019
:10FD080098EF7EF098EF7EF000F000F000F000F041
:10FD180000F0052AC70E056494EF7EF096EF7EF09A
:10FD280088EF7EF098EF7EF0034A042A9CEF7EF07D
:10FD38000150035C02500458D8A0A5EF7EF0A7EF4D
:10FD48007EF07AEF7EF0A9EF7EF01200000E0D6EC5
:10FD5800000E0C6E0A500B10D8B4B5EF7EF0B7EF5A
:10FD68007EF0E9EF7EF0010E0E6EC1EF7EF0D890C6
:10FD78000A360B360E2AC1EF7EF00BAEC6EF7EF0C8
:10FD8800C8EF7EF0BBEF7EF0CCEF7EF0CCEF7EF0DC
:10FD9800D8900C360D360A50085C0B500958D8A07C
:10FDA800D8EF7EF0DAEF7EF0E1EF7EF00A50085EE1
:10FDB8000B50095A0C80E1EF7EF0D8900B320A32D2
:10FDC8000E2ECCEF7EF0E9EF7EF00CC008F00DC0EF
:10FDD80009F01200076EFFEF7EF0010EC26E18EFF9
:10FDE8007FF0050EC26E18EF7FF0090EC26E18EF95
:10FDF8007FF018EF7FF00750036E046A0450000A82
:10FE0800D8B409EF7FF018EF7FF00350000AD8B498
:10FE1800F1EF7EF0010AD8B4F5EF7EF0030AD8B40A
:10FE2800F9EF7EF018EF7FF0C2821BEF7FF0C2B2CD
:10FE380020EF7FF022EF7FF01BEF7FF024EF7FF0C1
:10FE4800C3CF03F0060E046ED8900332042E28EFB9
:10FE58007FF00350C4CF05F0066AD8900536063601
:10FE6800D890053606360510016E0650026E3DEF35
:10FE78007FF01200010EC26E0B0EC16E010EC06E35
:10FE8800C30E926E3F0E936E010E946E000E956E29
:10FE9800000E966E000E186E000E176E000E146E91
:10FEA800000E136E000E836E000E166E050E156E94
:10FEB800000EEEEC7EF001C008F002C009F0000E62
:10FEC8000B6E050E0A6EAAEC7EF008C013F009C08E
:10FED80014F013C017F0186A185009E15C0E175C8B
:10FEE800D8A079EF7FF07BEF7FF0F6EF7FF0A9EFF6
:10FEF8007FF0A9EF7FF01506D8A01606010E836ED5
:10FF0800010E026EF40E016E74EC7EF0000E836E2C
:10FF1800000E026E640E016E74EC7EF059EC7EF0F9
:10FF28000FC017F010C018F0185007E15B0E175CEF
:10FF3800D8B0A1EF7FF0A3EF7FF0A9EF7FF0B4EF87
:10FF48007FF0B4EF7FF0A9EF7FF015501610D8A41A
:10FF5800B0EF7FF0B2EF7FF07FEF7FF0B4EF7FF08C
:10FF680059EC7EF00FC017F010C018F0185009E1D6
:10FF78005C0E175CD8A0C3EF7FF0C5EF7FF0F0EF01
:10FF88007FF0D8EF7FF0D8EF7FF08368010E026E24
:10FF9800F40E016E74EC7EF059EC7EF00FC017F091
:10FFA80010C018F0D8EF7FF081A6DDEF7FF0DFEF0B
:10FFB8007FF058EF7FF0185007E15C0E175CD8B05F
:10FFC800E8EF7FF0EAEF7FF0C9EF7FF058EF7FF0BE
:10FFD80058EF7FF058EF7FF0000E836E58EF7FF0F8
:10FFE80058EF7FF0000E836E58EF7FF058EF7FF0E8
:08FFF80058EF7FF000EF00F06C
:020000040020DA
:08000000FFFFFFFFFFFFFFFF00
:020000040030CA
:0E000000FF06181EFF8180FF0FC00FE00F40AB
:00000001FF
